:100000000C947B010C9498010C9498010C940C3185
:100010000C94BB2D0C9498010C9498010C949801AD
:100020000C9498010C9498010C9498010C940B2E4C
:100030000C9498010C9498010C9498010C949801DC
:100040000C94F52D0C9498010C9442300C94E230F1
:100050000C9498010C9498010C9498010C949801BC
:100060000C9498010C949801084AD73B3BCE016E42
:1000700084BCBFFDC12F3D6C74319ABD56833DDAFF
:100080003D00C77F11BED9E4BB4C3E916BAAAABE0E
:10009000000000803F05A84CCDB2D44EB93836A937
:1000A000020C50B9918688083CA6AAAA2ABE000074
:1000B00000803F00244E005B4F50543A005B564591
:1000C000523A312E31682E32303233303931392EB6
:1000D000323A005B544C4F3A005B4739323A0033B6
:1000E00030003238005B4700204700204D0020538D
:1000F0000020460020540033382E005B47433A4727
:10010000000D0A4772626C20312E3168283230327D
:1001100033303931392E32290D0A2B4261636B6C31
:100120006173680D0A5B27242720666F722068655B
:100130006C705D0D0A005B484C503A242420242347
:1001400020244720244920244E2024783D76616CC9
:1001500020244E783D6C696E6520244A3D6C696EA2
:10016000652024534C502024432024582024482028
:100170007E2021203F206374726C2D785D0D0A0073
:10018000414C41524D3A007C413A007C4F763A0056
:100190007C57434F3A007C506E3A007C46533A00FD
:1001A0007C42663A007C57506F733A007C4D506F2A
:1001B000733A00536C65657000446F6F723A004388
:1001C0006865636B00416C61726D00486F6D65001E
:1001D0004A6F6700486F6C643A0052756E0049645C
:1001E0006C65000D0A005B5052423A006572726FF6
:1001F000723A0000007A4300007A4300007A43001C
:1002000000000000000000000000000000FA4300B1
:1002100000FA430000FA4300A00C4700A00C47007E
:10022000A00C47000048C3000048C3000048C30AB0
:10023000000019010AD7233C6F12033B00007A44E7
:100240000000000000000000C8410000FA43FA006E
:100250000000803F6F6B0D0A00536C656570696E1E
:100260006700526573746F72696E67207370696E90
:10027000646C6500526573746F72696E67206465A3
:100280006661756C74730050676D20456E64004341
:100290006865636B204C696D6974730043686563BE
:1002A0006B20446F6F720044697361626C65640017
:1002B000456E61626C65640043617574696F6E3A86
:1002C00020556E6C6F636B656400272448277C277C
:1002D00024582720746F20756E6C6F636B00526515
:1002E00073657420746F20636F6E74696E7565003A
:1002F0005B4D53473A0011241FBECFEFD8E0DEBF5D
:10030000CDBF11E0A0E0B1E0E6E7F7E702C005905D
:100310000D92AE30B107D9F727E0AEE0B1E001C0F1
:100320001D92AB39B207E1F70E943B310C94B93B07
:100330000C9400008F929F92AF92BF92CF92DF9267
:10034000EF92FF920F931F93CF93DF937C016B018A
:10035000DC01EC91F0E0E55BF84F8081EF018D323C
:1003600029F52296818101E0912CF0E010E020E057
:1003700030E0A9015E01E0EDE80FEA3018F5FF5F1B
:10038000F930E0F491101150A5E0B0E00E94923BEA
:100390009B01AC01220F331F441F551F2E0F311D2F
:1003A000411D511D2196D5018C91E4CF8B3219F05E
:1003B000219600E0D9CF22968181FBCF9110F2CF18
:1003C0001F5FF0CFEE3F29F4911003C0992493945E
:1003D000E9CFFF23F9F0CA01B9010E9491384B011E
:1003E0005C0120E030E0A9010E94DF3781112BC0C1
:1003F000002309F445C0B7FAB094B7F8B094F601F9
:1004000080829182A282B382CB54D740C150F7013F
:10041000C083F1E08F2FDF91CF911F910F91FF905B
:10042000EF90DF90CF90BF90AF909F908F90089506
:100430002AE037ED43E25CE3C501B4010E94413A92
:100440004B015C011E5F1F3F9CF31F3F59F42DECD5
:100450003CEC4CEC5DE3C501B4010E94413A4B0118
:100460005C01C6CF112321F220E030E040E251E4EC
:10047000C501B4010E94413A4B015C011150F2CF19
:10048000D6018D929D92AD92BC921397BDCF2FB79E
:10049000F89490914406892B809344062FBF0895C9
:1004A0002FB7F89490914306892B809343062FBF72
:1004B00008959FB7F894809342069FBF08959FB711
:1004C000F8942091410680958223809341069FBF36
:1004D00008952FB7F89490914106892B8093410697
:1004E0002FBF0895AF92BF92CF92DF92EF92FF920B
:1004F0000F931F93CF93DF93EC0100EA16E05C01AA
:100500008CE0A80EB11CC990D990E990F99020E038
:1005100030E0A901C701B6010E94013A1816DCF0CB
:10052000F80121913191419151918F01C701B6019B
:100530000E94DF3787FD0FC0CA15DB0521F780E079
:10054000DF91CF911F910F91FF90EF90DF90CF90AF
:10055000BF90AF90089581E0F3CF8F929F92AF92BA
:10056000BF92CF92DF92EF92FF920F931F93CF93A0
:10057000DF93EB0120E7E22E26E0F22E8C016B01E7
:100580008CE0C80ED11C6991799189919991F701FC
:1005900081909190A190B1907F010E949338A50124
:1005A00094010E94E937F8016193719381939193CB
:1005B0008F01CC15DD0539F7DF91CF911F910F9198
:1005C000FF90EF90DF90CF90BF90AF909F908F9073
:1005D000089596B19095892F877039F082E091FF48
:1005E00080E090FD816092FD84600895CF93DF9359
:1005F000C0913F06D09140062097C9F08091100627
:100600008160809310066091260670912706809184
:100610002806909129069B01AC010E94413A6A8B01
:100620007B8B8C8B9D8B1092400610923F06DF9146
:10063000CF9108959091AD06492F8091AE06282F55
:1006400090FF11C094E080FF10C080E241FD9860EF
:1006500021FD806442FD906122FD806890932D020F
:1006600080932E02089590E0EECF80E0EFCF80914E
:10067000C10682FF13C0289A80912D0280933E020A
:100680008091AC068250990B880F819580933D0232
:1006900080916F00826080936F0008952898ECCF5E
:1006A0008093B300811106C08091B0008F77809352
:1006B000B00008958091B0008068F9CFCF93DF93A8
:1006C000239AC0EBD0E083E0888384E08093B1007C
:1006D000259A2091BD063091BE064091BF065091EB
:1006E000C0066091B9067091BA068091BB069091E0
:1006F000BC060E94E9369B01AC0160E070E08EE729
:1007000093E40E94E9376093290270932A02809350
:100710002B0290932C0288818F778883DF91CF9171
:100720000895E0913B0191E09E0F993609F490E025
:100730002091A501291761F0F0E0E45CFE4F808371
:1007400090933B018091C10080628093C10004C0FE
:100750002091410624FFECCF089510924506909118
:10076000C10697FD03C090E290934506882331F0BF
:100770008091450690E289278093450608958F92DF
:100780009F92AF92BF92CF92DF92EF92FF920F9320
:100790001F93CF93DF93CDB7DEB72D970FB6F894A5
:1007A000DEBF0FBECDBF6B017C01042F20E030E027
:1007B000A9010E94DF3787FF07C08DE20E949103E5
:1007C000F7FAF094F7F8F094102F123008F054C0B4
:1007D00000FF0AC020E030E040E251E4C701B6016A
:1007E0000E94413A6B017C0120E030E040E05FE391
:1007F000C701B6010E94EA360E945B3810E03AE079
:10080000832E912CA12CB12CE12FF0E06115710504
:1008100081059105E9F581E090E08C0F9D1FE80FBF
:10082000F91F80E3101708F445C0101309C0E1E078
:10083000F0E0EC0FFD1FE10FF11D80E380831F5FEF
:10084000EE24E394F12CEC0EFD1EE10EF11C1111CF
:1008500034C02D960FB6F894DEBF0FBECDBFDF912A
:10086000CF911F910F91FF90EF90DF90CF90BF90AD
:10087000AF909F908F90089520E030E048EC52E4D4
:10088000C701B6010E94413A6B017C0112509DCF15
:10089000EE24E394F12CEC0EFD1EEE0EFF1EA501DE
:1008A00094010E946A3B605DF7016083B901CA014F
:1008B0001F5FAACF1F5F8193B5CF101303C08EE2D5
:1008C0000E949103F70182917F010E9491031150D0
:1008D000BECF2091C10640E020FF07C02BE832E4E4
:1008E00041E25DE30E94413A41E00C94BF03209154
:1008F000C10643E020FF07C02BE832E441E25DE39C
:100900000E94413A44E00C94BF030F931F93CF938E
:100910008C01C0E0F80161917191819191918F01F9
:100920000E947704C23019F08CE20E949103CF5FDD
:10093000C33081F7CF911F910F910895CF93DF932B
:10094000843658F06AE00E944A3BC0E3C90F6AE06F
:100950000E944A3BD0E3D90F04C0C0E0D0E08A3007
:10096000B0F7805D0E949103DD2319F08D2F0E9466
:100970009103CC2329F08C2FDF91CF910C9491031C
:10098000DF91CF910895CF93DF93EC01FE01849125
:100990002196811103C0DF91CF9108950E949103A8
:1009A000F5CF83EE91E00C94C304CF93C82F8CEE67
:1009B00091E00E94C3048C2F0E949E04CF910C945E
:1009C000D104811104C084E592E00C94C3040C941A
:1009D000D504CF92DF92EF92FF92CF93DF93D82F7F
:1009E0006A017B01C22F84E20E9491038D2F0E9435
:1009F0009E048DE30E9491034C2FC701B6010E9413
:100A0000BF03DF91CF91FF90EF90DF90CF900C94D8
:100A1000D104CF93DF93D82FC62F84E20E94910395
:100A20008D2F0E949E048DE30E9491038C2F0E94C3
:100A30009E04DF91CF910C94D104EF92FF920F931B
:100A40001F93CF93DF936091AC0670E080E00E942B
:100A500009056091AF0670E081E00E940905609190
:100A6000AD0670E082E00E9409056091AE0670E07C
:100A700083E00E9409056091C10662FB662760F968
:100A800070E084E00E9409056091C10666FB66275C
:100A900060F970E085E00E9409058091C106082E8A
:100AA000000C990B692F661F6627661F70E086E0B1
:100AB0000E9409056091B00670E08AE00E94090575
:100AC0004091B1065091B2066091B3067091B406A0
:100AD00023E08BE00E94E9044091B5065091B606F0
:100AE0006091B7067091B80623E08CE00E94E9049B
:100AF0006091C106617070E08DE00E94090560910F
:100B0000C10665FB662760F970E084E10E94090573
:100B10006091C10663FB662760F970E085E10E9481
:100B200009056091C1066295617070E086E10E94DE
:100B300009056091C20670E087E10E9409054091B5
:100B4000C3065091C4066091C5067091C60623E0A5
:100B500088E10E94E9044091C7065091C80660915F
:100B6000C9067091CA0623E089E10E94E9046091F8
:100B7000CB067091CC068AE10E9409054091CD0612
:100B80005091CE066091CF067091D00623E08BE1A4
:100B90000E94E9044091B9065091BA066091BB06E3
:100BA0007091BC0620E08EE10E94E9044091BD06F0
:100BB0005091BE066091BF067091C00620E08FE1A3
:100BC0000E94E9046091C1066695617070E080E260
:100BD0000E94090584E6E82E10E0C0E7D6E0F12C7B
:100BE0000F2D0E0D123059F1E0F4113019F148813A
:100BF00059816A817B8123E0802F0E94E904F3946C
:100C0000249683E0F812ECCF8AE0E80E1F5F86E9B5
:100C1000E812E3CFDF91CF911F910F91FF90EF90FA
:100C200008951330C9F0143011F74C855D856E8539
:100C30007F85E1CF488D598D6A8D7B8DDCCF20E09B
:100C400030E041E655E46CA17DA18EA19FA10E94F8
:100C5000E937AB01BC01CFCF48A959A96AA97BA943
:100C60007058C9CF8DE50E9491030C94D104CF93A5
:100C7000DF93CDB7DEB72C970FB6F894DEBF0FBE6B
:100C8000CDBF86EE91E00E94C30462E576E0CE011E
:100C900001960E94AD02CE0101960E9485048AE36E
:100CA0000E949103809164060E949E040E94320675
:100CB0002C960FB6F894DEBF0FBECDBFDF91CF915B
:100CC0000895CF93DF93EC018991811103C0DF91E7
:100CD000CF9108950E949103F7CFEFE1F1E0A6E4F0
:100CE000B6E04D915D916D917C9113974083518356
:100CF0006283738314964D915D916D917C911797EA
:100D0000448355836683778318968D919D910D90CA
:100D1000BC91A02D80879187A287B3870895BF9249
:100D2000CF92DF92EF92FF920F931F93CF93DF93B7
:100D30007C01FC0102A513A5D4A5C5A5818980FF6E
:100D400033C06091670670E090E080E00E949338C5
:100D50002AE037ED43E25CE30E94413A9B01AC019B
:100D6000B8018D2F9C2F0E94413A8B01D82FC92F9B
:100D700020E030E040E85FE3B8018D2F9C2F0E9417
:100D8000013A181624F000E010E0D0E8CFE3B801F3
:100D90008D2F9C2FDF91CF911F910F91FF90EF909E
:100DA000DF90CF90BF90089582FD17C060916606D6
:100DB00070E090E080E00E9493382AE037ED43E253
:100DC0005CE30E94413A9B01AC01B8018D2F9C2F3E
:100DD0000E94413A8B01D82FC92FF701B6A0C7A0B6
:100DE000D0A4F1A498014D2F5C2F6B2D7C2D8D2D5F
:100DF0009F2D0E94DF3787FFBBCF0B2D1C2DDD2DD4
:100E0000CF2DB6CF8091540290918505981739F077
:100E100023E3829FC00111248B5A9D4F089590E0D7
:100E200080E008950E940207892B19F082E00C945B
:100E3000690208952F923F924F925F926F927F9234
:100E40008F929F92AF92BF92CF92DF92EF92FF92DA
:100E50000F931F93CF93DF9300D000D0CDB7DEB7B1
:100E600000918505002309F486C00983398131503A
:100E7000398310915302131709F466C0C32ED12C85
:100E8000E3E33E9FC00111249C012B5A3D4F7901A1
:100E9000F90176888788908CA18C628D738D848D02
:100EA000958D9B01AC010E94EA36F701268D378DA6
:100EB00040A151A10E94413AB62EE72EF82E9B8305
:100EC000262F372F482F592F672D782D892D9A2DB2
:100ED0000E94DF3787FF03C0B72C7401AB8283E326
:100EE0008C9DF0018D9DF00D1124EB5AFD4F8B2D43
:100EF0009E2DAF2DBB81828B938BA48BB58BF981FB
:100F00008F2FF11101C080E1FF24FA94F80E309088
:100F100054021F1133C0131102C00E94F602E3E312
:100F20001E9FC00111248B5A9D4F9A8389833324BD
:100F30003394310EF0E13F1201C0312C83E3282EAF
:100F4000031185C0109353020F900F900F900F90D4
:100F5000DF91CF911F910F91FF90EF90DF90CF9095
:100F6000BF90AF909F908F907F906F905F904F90C9
:100F70003F902F90089520E1298378CF298183E342
:100F8000289F900111242B5A3D4F3C832B8323E350
:100F9000E22E8F2C912CFE9CC0011124FC01EB5AF7
:100FA000FD4FFA83E983F11002C090E1F92EFA9423
:100FB000F31002C00E94F602E89CC001E99C900D6B
:100FC00011249C012B5A3D4F6901F901468857882D
:100FD000608C718CA30192016289738984899589DF
:100FE0000E94DF37882339F1F601628D738D848D7D
:100FF000958D9B01AC010E94EA36F601268D378D56
:1010000040A151A10E94413AEB81FC8122893389A0
:10101000448955890E94EA364B015C01AC019B0171
:10102000C301B2010E94013AF60118165CF4828AEB
:10103000938AA48AB58A29813A813C832B831F1124
:10104000A8CF6DCF428A538A648A758AF4CFC32CA5
:10105000D12C329CC00111249C012B5A3D4F7901A7
:10106000E981FA814288538864887588F901828809
:101070009388A488B588A5019401C301B2010E9498
:10108000DF3787FF26C0E981FA81628D738D848DF9
:10109000958D9B01AC010E94EA36E981FA81268D8B
:1010A000378D40A151A10E94413AA30192010E94B3
:1010B000EA362B013C01AC019B01C501B4010E9441
:1010C000013A181634F4F701428A538A648A758A01
:1010D000132D2C9CF0012D9CF00D1124EB5AFD4F8B
:1010E00026893789408D518D6289738984899589D4
:1010F0000E94DF37811101C0132D3394F0E13F12BC
:1011000001C0312CFA82E9821BCF6F927F928F92BD
:101110009F92AF92BF92CF92DF92EF92FF920F9386
:101120001F93CF93DF93EB018C015B018CE0A80E42
:10113000B11C89E9682E96E7792E26E9822E3EE7D2
:10114000932EC990D990E990F99020E030E0A90160
:10115000C701B6010E94DF378823B9F0A7019601C5
:10116000F80160817181828193810E94E9376B016E
:101170007C01E894F7F89301A401C701B6010E942D
:10118000013A181614F0360147010C5F1F4FCA15BB
:10119000DB05B9F6B301C401DF91CF911F910F9127
:1011A000FF90EF90DF90CF90BF90AF909F908F9087
:1011B0007F906F90089593B18091C10686FF0BC018
:1011C000967159F091FB882780F992FD82609071A9
:1011D00029F0846008959095F3CF80E00895EBE6C0
:1011E000F0E08081897E8083E8E6F0E080818E7F78
:1011F0008083089584B1897E84B985B1866185B97B
:101200008091C10683FF0BC080916B008661809343
:101210006B008091680081608093680008950C9451
:10122000EF0866E476E089EE96E00C94AD02F8945F
:10123000F999FECF92BD81BD81E08FBB20B5862F8D
:101240008227082E000C990B50E086239523892BCA
:1012500049F084E16F3F11F060BD84E08FBBF99AE3
:10126000789408952617E1F360BD84E2F7CF9F924A
:10127000AF92BF92CF92DF92EF92FF920F931F93A4
:10128000CF93DF935C018A017B01E40EF51EEB0135
:10129000912C6C01C61AD70ACE018C0D9D1D21E040
:1012A000911007C0292D990C330B232F221F2227C1
:1012B000221F6991962E920E0E941709CE15DF0506
:1012C00059F7692DC501800F911FDF91CF911F91B3
:1012D0000F91FF90EF90DF90CF90BF90AF909F90D5
:1012E0000C9417096AE090E080E00E94170941E63B
:1012F00050E060E776E081E090E00C943709F999DE
:10130000FECF92BD81BD81E08FBB80B508959F92D5
:10131000AF92BF92CF92DF92EF92FF920F931F9303
:10132000CF93DF935B018A017C01E40EF51EEC0193
:10133000912C6B01C81AD90AC6018C0F9D1F0E94FF
:101340007F0921E0911007C0292D990C330B232F21
:10135000221F2227221F982E920E8993CE15DF0579
:1013600059F7C501800F911F0E947F0921E030E0ED
:10137000891511F030E020E0C901DF91CF911F9174
:101380000F91FF90EF90DF90CF90BF90AF909F9024
:10139000089590916006911105C086FF04C0439A9C
:1013A00010926A0608954398FBCFEFE1F1E08CE1DB
:1013B000DF011D928A95E9F710925402109285057B
:1013C00081E080930E011092530208954F925F9234
:1013D0006F927F92AF92BF92CF92DF92EF92FF9285
:1013E0000F931F93CF93DF93EC015C012CE0A20ECF
:1013F000B11C8C01C12CD12C7601F8014190519087
:10140000619071908F0120E030E0A901C301B20129
:101410000E94DF37882371F0A3019201C301B2015A
:101420000E94413A9B01AC01C701B6010E94EA3615
:101430006B017C010A151B0501F7C701B6010E946B
:10144000E03A6B017C01AC019B0160E070E080E858
:101450009FE30E94E9372B013C01699179918991C1
:1014600099915E01F4E0AF1AB108A30192010E94C4
:10147000413AF5016083718382839383C017D1075A
:1014800061F7C701B601DF91CF911F910F91FF90D6
:10149000EF90DF90CF90BF90AF907F906F905F9074
:1014A0004F9008954F925F926F927F928F929F928A
:1014B000AF92BF92CF92DF92EF92FF926B017C01CD
:1014C0008090BD069090BE06A090BF06B090C0066A
:1014D0004090B9065090BA066090BB067090BC066A
:1014E000A3019201C501B4010E94013A87FF1BC00C
:1014F0006091680670E090E080E00E9493382AE0F6
:1015000037ED43E25CE30E94413AA70196010E9455
:10151000413A6B017C01AC019B01C301B2010E9405
:10152000DF371816B4F040926C0650926D06609248
:101530006E0670926F068FEFFF90EF90DF90CF9066
:10154000BF90AF909F908F907F906F905F904F90E3
:101550000895A7019601C501B4010E94013A87FDD3
:101560001CC020E030E0A901C701B6010E94DF37AE
:10157000811109C010926C0610926D0610926E06D1
:1015800010926F06D9CF80926C0690926D06A09251
:101590006E06B0926F0681E0CFCFC0926C06D092FB
:1015A0006D06E0926E06F0926F06A5019401C701E8
:1015B000B6010E94E9362091290230912A02409119
:1015C0002B0250912C020E94413A0E94CE3820E01A
:1015D00030E040E85FE30E94EA360E946238862FDE
:1015E000ABCF90916006911111C0811110C0109283
:1015F0006C0610926D0610926E0610926F06809126
:10160000B0008F778093B00010926A060895803101
:1016100089F42D989091C10691FF05C0803219F48C
:1016200040E050E0BA01CB01BA010E94520A0E9488
:101630005003EACF2D9AEECF2F923F924F925F92B6
:101640006F927F928F929F92AF92BF92CF92DF92D2
:10165000EF92FF920F931F93CF93DF93CDB7DEB737
:10166000EB970FB6F894DEBF0FBECDBF8091630637
:1016700080FD53C29091860580918705981709F4E3
:101680004CC280913F0690914006892B09F07EC0A4
:101690001091630612FF5AC28091850523E3829F51
:1016A000C00111248B5A9D4F9093400680933F06B2
:1016B00040913F06509140065A874987452B09F4CF
:1016C0002CC20091100600FF44C210921006109226
:1016D0002206109223061092240610922506A98550
:1016E000BA855A962D913D914D915C915D972983D4
:1016F0003A834B835C8360E070E080E09FE30E946C
:10170000E9376D837E838F839887E985FA85468CD8
:10171000578C60A071A082889388A488B58811FF37
:1017200005C3F2E0F0932106A50194010E94413A1D
:101730009B01AC01C301B2010E94E9366B017C013F
:1017400020E030E0A9010E94DF3787FFDEC2298157
:101750003A814B815C81CA01B9010E94EA36A3013A
:1017600092010E94413A9B01AC01C501B4010E9463
:10177000E9360E94E03A60932E0670932F0680931C
:101780003006909331061860109363068091B2057D
:10179000A82FB0E0BA8BA98B27E02A9FF0012B9FDE
:1017A000F00D1124E857FA4F80910F068483409181
:1017B0003F06509140065A874987DA015E96BC91F0
:1017C000BDA3FA01F78DFEA3DA019096BC91BFA3E9
:1017D000FA01F1A1F8A720911D0630911E06409153
:1017E0001F06509120066DA17EA18B2F9F2F0E9476
:1017F000E93669AB7AAB8BAB9CAB20E030E0A9015A
:101800000E94DF3787FF04C019AA1AAA1BAA1CAAC4
:1018100020912A062D8B30912B063E8B40912C0671
:101820004F8B50912D06588F809132068D8F90915D
:1018300033069E8FA0913406AF8FB0913506B8A3C2
:10184000E0913606E9A7F0913706FAA7209138060D
:101850002BA7309139063CA770902606609027068A
:10186000409128064BAF509129065AAF809121062E
:101870008D87909122069DA7A0912306AEA7B091D7
:101880002406BFA7E0912506E8ABF0912E06FEAB3B
:1018900020912F062FAB3091300638AF40913106A2
:1018A00049AF29A53AA54BA55CA56D8D7E8D8F8D81
:1018B00098A10E94DF378111C8C352E05DAB9DA1A2
:1018C000998FAEA1AA8FBFA1BB8FE8A5EC8F8EE345
:1018D000C82E83ECD82E8EE2E82E89E3F82E212C38
:1018E000312C2101A701960129A33AA34BA35CA3A4
:1018F0005D85513009F44AC4A985BA85513008F490
:10190000D6C3533009F078C45A962D913D914D912C
:101910005C915D97C701B6010E94413A4B015C01A1
:101920002D893E894F89588D672D762D8BAD9AADC7
:101930000E94E9369B01AC01C501B4010E94013A45
:1019400087FD8DC32D8D3E8D4F8D58A16DA17EA13C
:101950008FA198A50E94E9369B01AC010E94EA364E
:101960006B017C012D893E894F89588D672D762D1D
:101970008BAD9AAD0E94EA369B01AC01C701B6015E
:101980000E94E9376B017C017D886E88BF89BBAFFF
:10199000E88DEAAF0D8D1E8DFF8DF98328A12D8373
:1019A00031E03D87A7019601C201B1010E94EA36EC
:1019B0001B012C0129A13AA14BA15CA10E94DF3798
:1019C00087FF87C4A201910169A17AA18BA19CA183
:1019D0000E94E9366B017C01980149815D816DA50A
:1019E0007EA58FA598A90E94DF3787FD31C3872D7B
:1019F000962DABADBAAD8093260690932706A093A3
:101A00002806B09329063D8530932106E091B30561
:101A1000F091B4058189811104C09091630693FF10
:101A200031C0A985BA8551969C915197907309F45C
:101A30007CC49E96CD90DD90ED90FC90D19788234C
:101A4000B1F020913A0630913B0640913C0650910E
:101A50003D06672D762D8BAD9AAD0E94413A9B01D4
:101A6000AC01C701B6010E94413A6B017C01C7017C
:101A7000B6010E94520A80933E0680916306877FDA
:101A80008093630627E0E989FA892E9FC0012F9F82
:101A9000900D1124AC0148575A4F3A0180913E06EF
:101AA000DA0116968C932091190630911A0640910E
:101AB0001B0650911C06B80189819D810E94413A04
:101AC00069877A878B879C870E94C8376B017C0166
:101AD0006091150670911606809117069091180670
:101AE0000E94C8374B015C01A70196010E94E936AC
:101AF0000E9462386D877E878F87988B2D853E8503
:101B0000F30131832083232B09F01AC480916306EB
:101B100081FF16C4816080936306EB960FB6F8943C
:101B2000DEBF0FBECDBFDF91CF911F910F91FF9010
:101B3000EF90DF90CF90BF90AF909F908F907F906D
:101B40006F905F904F903F902F9008950E940207F2
:101B5000ABCD80910F068F5F853009F480E08093D4
:101B60000F06282F30E052E1859FC0011124DC01CF
:101B7000AB54BA4F7D01B093B405A093B305E9858A
:101B8000FA85808950968C9390E080E04191519144
:101B900061917191D701A80FB91F689412F8440F91
:101BA000551F661F771F1694D1F74D935D936D9364
:101BB0007C93139704968C30910541F7A985BA85DB
:101BC0001C966D917D918D919C911F97B2E1B29F72
:101BD000A001B39F500D1124FA01EB54FA4F4B01B1
:101BE0005C0123E0880C991CAA1CBB1C2A95D1F728
:101BF00084869586A686B7860E94913860931506DE
:101C0000709316068093170690931806E985FA8557
:101C1000268D378D40A151A10E94E9379B01AC016F
:101C20002093190630931A0640931B0650931C0606
:101C300060E070E080EA9FE30E94E93760931D0650
:101C400070931E0680931F06909320061092110633
:101C500010921206109213061092140611FD02C083
:101C600003FF42C060912E0670912F0680913006CE
:101C7000909131066093260670932706809328067C
:101C8000909329069B01AC010E94413AA985BA852F
:101C900052966D937D938D939C935597077F0093F8
:101CA0001006D70151961C928091C10681FF0FCD7D
:101CB000E985FA85818985FF0ACD22A533A544A54A
:101CC00055A560E070E080E89FE30E94E9376093EB
:101CD0003A0670933B0680933C0690933D06E1E004
:101CE000D7015196EC93F3CCE985FA856289738923
:101CF000848995890E94E03A6093260670932706AE
:101D00008093280690932906CCCFC0922206D092C9
:101D10002306E0922406F092250610922E061092D9
:101D20002F0610923006109231062DCD109221060A
:101D30004092320650923306609234067092350615
:101D400012FF6AC010922E0610922F0610923006D3
:101D500010923106C12CD12C760189859A850E947A
:101D60008F066D877E878F87988B9B01AC010E94C1
:101D7000413A69877A878B879C87A50194010E94E5
:101D8000DF3787FF93C029853A854B855C85C50180
:101D9000B4010E94E9362D813E814F8158850E9411
:101DA000413A9B01AC01C301B2010E94E936609344
:101DB000320670933306809334069093350620E004
:101DC00030E0A9010E94DF3718160CF449C032E058
:101DD0003093210629813A814B815C81CA01B90186
:101DE0000E94EA36A30192010E94413A9B01AC0194
:101DF000C501B4010E94E9360E94E03A60932E06C4
:101E000070932F06809330069093310680911006D0
:101E1000886080931006B7CCE0915402EF5FE03108
:101E200009F4E0E080918505C12CD12C76018E1754
:101E300051F023E32E9FF0011124EB5AFD4FC2888D
:101E4000D388E488F588C701B6010E94E03A609320
:101E50002E0670932F0680933006909331067DCF27
:101E6000A701960169857A858B859C850E94E93654
:101E70002D813E814F8158850E94413A60933606FC
:101E80007093370680933806909339068D859E852A
:101E9000AF85B88980932A0690932B06A0932C06D1
:101EA000B0932D0693E0909321066DCCA701960187
:101EB000C501B4010E94E9362D813E814F815885CC
:101EC0000E94413AA30192010E94EA3620E030E0EC
:101ED00040E05FE30E94413A698B7A8B8B8B9C8B4D
:101EE00020E030E0A9010E94013A18160CF094C0DD
:101EF000A301920169897A898B899C890E94DF37C5
:101F000087FF88C0A701960169857A858B859C85A6
:101F10000E94E9362D813E814F8158850E94413AC9
:101F20009B01AC0120933606309337064093380668
:101F30005093390669897A898B899C890E94013A74
:101F40001816BCF52D853E854F85588920932A06A5
:101F500030932B0640932C0650932D06A501940137
:101F600069857A858B859C850E94DF37811104C045
:101F700031E03093210607CCA501940169857A856B
:101F80008B859C850E94E9362D813E814F81588545
:101F90000E94413A9B01AC01C301B2010E94E936A3
:101FA000609332067093330680933406909335061F
:101FB000EACB89899A89AB89BC8980933206909350
:101FC0003306A0933406B09335068093360690937B
:101FD0003706A0933806B093390629813A814B81A0
:101FE0005C81CA01B9010E94EA3629893A894B8984
:101FF0005C890E94413AA70196010E94EA360E943C
:10200000E03A60932A0670932B0680932C069093F7
:102010002D06B9CB92E047CF80912E0690912F06E6
:10202000A0913006B091310610923206109233061C
:10203000109234061092350680932A0690932B0650
:10204000A0932C06B0932D069ECB81E08DAB37CCB0
:10205000098F1A8F39813B8F4D814C8F49CC20E0FD
:1020600030E040E05FE3C501B4010E94413A9B01CA
:10207000AC01672D762D8BAD9AAD0E94E936A70194
:1020800096010E94413A9B01AC01698D7A8D8B8D3E
:102090009C8D0E94E9368B0189839D83A501940163
:1020A000672D762D8BAD9AAD0E94E9366AC05A969F
:1020B0002D913D914D915C915D97C701B6010E94B4
:1020C000413A4B015C0120E030E040E05FE30E94D8
:1020D000413A272D362D4BAD5AAD0E94EA36A70165
:1020E00096010E94413A9B01AC01698D7A8D8B8DDE
:1020F0009C8D0E94E9368B0189839D839B01AC01F5
:102100006D8D7E8D8F8D98A10E94013A18168CF5E9
:102110002D8D3E8D4F8D58A16DA17EA18FA198A5CB
:102120000E94E9369B01AC010E94EA366B017C01FA
:102130002D893E894F89588D672D762D8BAD9AADAF
:102140000E94EA369B01AC01C701B6010E94E93743
:102150006B017C01BDA9BD877D886E88EF89EBAFDF
:10216000F88DFAAF0D8D1E8D2F8D298338A13D83FB
:1021700019CCA5019401672D762D8BAD9AAD0E94E7
:10218000EA36762E672E8BAF9AAF0CCC2D893E891E
:102190004F89588DC701B6010E94413A9B01AC019D
:1021A000698D7A8D8B8D9C8D0E94E9368B01898398
:1021B0009D8329A53AA54BA55CA50E94DF3787FF23
:1021C000F1CB29A53AA54BA55CA5698D7A8D8B8DA0
:1021D0009C8D0E94E9362D893E894F89588D0E9439
:1021E000E9376B017C0109A51AA54BA549835CA5BC
:1021F0005D8382E08D87D6CB5A962D913D914D918E
:102200005C915D97C701B6010E94413A4B015C01A8
:10221000AC019B01672D762D8BAD9AAD0E94013AE2
:10222000181644F520E030E040E05FE3C501B4015A
:102230000E94413A9B01AC01672D762D8BAD9AAD82
:102240000E94E936A70196010E94413A9B01AC0128
:10225000698D7A8D8B8D9C8D0E94E9368B018983E7
:102260009D832DA53EA54FA558A90E94013A181699
:102270000CF414CF2DA53EA54FA558A9698D7A8DD4
:102280008B8D9C8D0E94E9369B01AC010E94EA3641
:102290006B017C012EA93FA948AD59AD672D762D64
:1022A0008BAD9AAD0E94EA369B01AC01C701B60125
:1022B0000E94E9376B017C017EA86FA8B8ADBBAF67
:1022C000E9ADEAAF0DA51EA5FFA5F98328A92D83C9
:1022D00069CB29A93AA94BA95CA9B80189819D813B
:1022E0000E94013A18168CF42EE333EC4EE259E3C7
:1022F00069A17AA18BA19CA10E94EA3669A37AA365
:102300008BA39CA3A201910163CB872D962DABAD2E
:10231000BAAD8093260690932706A0932806B09323
:1023200029064D854093210671CB10926C061092C0
:102330006D0610926E0610926F0610923E069DCBAF
:102340002091110630911206409113065091140607
:10235000C201B1010E94EA362B013C0129853A8570
:102360004B855C85C501B4010E94E9369B01AC0137
:10237000C301B2010E94E9374B015C0120EC31EE50
:1023800044E65EE40E94413A0E94C8370E946238E7
:10239000603D57E075078105910508F066C027E0AC
:1023A000A989BA892A9FF0012B9FF00D1124E857C3
:1023B000FA4F158227E0A989BA892A9FF0012B9F3D
:1023C000F00D1124E857FA4F7383628380918705DB
:1023D0008093B2058F5F863009F4A1C08093870592
:1023E000E0913F06F0914006C801A981BD81868F2A
:1023F000978FA0A3B1A3C0921506D0921606E092C3
:102400001706F092180629853A854B855C85C70129
:10241000B6010E94E936A50194010E94413A6093F9
:102420001106709312068093130690931406209160
:102430002206309123064091240650912506B801CA
:1024400089819D810E94DF37811114C9F090630654
:1024500020E030E0A901B80189819D810E94013A04
:1024600018160CF05FC08F2D55CB603A3FE0730714
:1024700081059105A0F5A7E049895A89A49FF0013B
:10248000A59FF00D1124E857FA4FB1E0B583A7E0FE
:1024900049895A89A49FF001A59FF00D1124E8579E
:1024A000FA4F2581022E04C09695879577956795FA
:1024B0000A94D2F74D855E8502C0440F551F2A95B8
:1024C000E2F7518340836115710551E0850791055D
:1024D00008F470CF4FEF5FEF5383428377CF6034C0
:1024E000EFE17E078105910568F447E029893A8983
:1024F000429FF001439FF00D1124E857FA4F52E03C
:102500005583C5CF27E0A989BA892A9FF0012B9F5F
:10251000F00D1124E857FA4F33E03583B8CF10920D
:1025200087055ECFF2FC9FCF1092400610923F06C7
:102530009091540280918505891709F49BC881E028
:10254000890F803109F480E020915302921302C078
:1025500080935302809354028DC880916F008D7FC9
:1025600080936F0080918100887F816080938100DB
:1025700010922F028091AF0690915F068F3FA1F4D9
:1025800020914206211110C0903881F490E001970B
:1025900078F481E09091C10692FF02C091E0892712
:1025A000882369F0289A0895943081F780E0F2CF6B
:1025B000EFE9FFE03197F1F700C00000E8CF28987D
:1025C0000895CF93DF930E94AD12EFE0F6E080E331
:1025D000DF011D928A95E9F7C0E3D2E083E2FE01B4
:1025E00011928A95E9F71092400610923F061092D8
:1025F00086051092B20581E08093870510922F0224
:102600000E941A0380912E028F878BB1837E909156
:102610002D02892B8BB98BB18F7190912E02892B52
:102620008BB9DF91CF9108958091410684FD1FC041
:1026300080E10E9469028091B0008F778093B000A2
:10264000439890915F06892F8C7221F480916306E4
:10265000867069F0943049F480914206811103C07C
:1026600086E00E9459020C94AD1283E0FACF0895DF
:102670002F923F924F925F926F927F928F929F9292
:10268000AF92BF92CF92DF92EF92FF920F931F9380
:10269000CF93DF93CDB7DEB7A4970FB6F894DEBF24
:1026A0000FBECDBF10914206112349F181E0809306
:1026B0005F0680E891E00E94C304812F0E949E047F
:1026C0000E94D10485EF91E00197E1F5115012309D
:1026D00088F480EF92E00E94C3048EED92E00E94A5
:1026E000C3040E94320680E10E945F02809141068D
:1026F00084FFFCCF8FB7F894109242068FBF1091E1
:102700004106112309F4A9C214FF23C081E080937C
:102710006006A4960FB6F894DEBF0FBECDBFDF9162
:10272000CF911F910F91FF90EF90DF90CF90BF90CE
:10273000AF909F908F907F906F905F904F903F9061
:102740002F900895EFE9FFE03197F1F700C0000006
:10275000BBCF10FFCDC08CE0E6E4F6E0DE01599679
:1027600001900D928A95E1F7BE01675E7F4FCE0121
:102770000D960E94AD028CE30E94910380915F064A
:10278000883009F42FC108F00AC1813009F433C13F
:1027900008F423C1823009F431C1843009F428C11E
:1027A0008091B006F82FF1709F2E80FF3CC1809180
:1027B0006B06882309F437C18CEA91E00E94C304B8
:1027C000CE010D960E9485048091B00681FF1DC048
:1027D00080EA91E00E94C3049091850580915402A3
:1027E000981708F46FC1815F891B0E949E048CE2D8
:1027F0000E9491038091270290912802981708F473
:1028000063C18058891B0E949E048BE991E00E945D
:10281000C30480915F068C7709F458C16091260645
:102820007091270680912806909129060E946904DC
:102830008CE20E94910360916C0670916D0680910C
:102840006E0690916F0640E00E94BF030E94DB0875
:10285000E82E0E94E902F82E06B10072809145062A
:1028600008278E2D8F29802B59F186E991E00E944F
:10287000C304002319F080E50E949103EE2079F053
:10288000E0FE03C088E50E949103E1FE03C089E5F4
:102890000E949103E2FE03C08AE50E949103FF209B
:1028A00079F0F0FE03C082E50E949103F1FE03C0BF
:1028B00088E40E949103F2FE03C083E50E94910325
:1028C00080916B06882309F405C1815080936B06C3
:1028D00000916A06002309F416C1015000936A06AC
:1028E0008EE30E9491030E94D10481E00E945F0266
:1028F000812F887E09F461C180915F06982F9370C3
:1029000009F04AC18872A9F080916106807C89F43F
:102910000E94F60282E08093630680915F06803217
:1029200041F480E217FD0CC08091610680688093BD
:10293000610680915F06811103C091E0909361066A
:1029400016FF07C085FD05C09091610690649093C5
:10295000610613FF05C0807E19F480E180935F0655
:1029600015FF1AC180EF92E00E94C3048CE992E047
:102970000E94C3040E9432068091610687FD07C150
:1029800090915F06903409F0FFC083FF04C0837EFE
:1029900082608093610680E480935F06F8C0803295
:1029A00021F198F4803109F0FBCE8091610687FD1A
:1029B0001CC084ED91E00E94C3048091610680FFF9
:1029C0002EC080E30E949103EBCE8034D1F080389A
:1029D00009F0E6CE83EB91E002C08EED91E00E941B
:1029E000C304DECE8AED91E0FACF80ED91E0F7CF1F
:1029F0008BEC91E0F4CF85EC91E0F1CF8FEB91E09F
:102A0000EECF89EB91E00E94C3048091610683FFC1
:102A100002C083E3D7CF82FF04C085FFD2CF81E31A
:102A2000D1CF82E3CFCF40900D0750900E0760903A
:102A30000F077090100765EFA62E66E0B62E9E0178
:102A40002F5F3F4F6901CE010D967C0100E0F5013B
:102A500061917191819191915F01208531854285CC
:102A600053850E94EA36F6016193719381939193A5
:102A70006F01023041F4A30192010E94EA36698796
:102A80007A878B879C87911012C0F601349720813A
:102A9000318142815381F70160817181828193810B
:102AA0000E94E936F70160837183828393830F5F0D
:102AB000F4E0EF0EF11C033051F691107DCE85EA63
:102AC00091E07CCE815090CE81509CCE60E070E051
:102AD000CB01ACCE80915F068C7799F08DE180932D
:102AE0006B0680916A06811103C081E080936A06BB
:102AF00080E991E00E94C304CE0101960E94850402
:102B0000E7CE89E0ECCF80915F068C77C1F183E15D
:102B100080936A068BE891E00E94C3048091660668
:102B20000E949E048CE20E949103809167060E949D
:102B30009E048CE20E949103809168060E949E048C
:102B40008091B000F12C87FF04C02D9B1AC052E089
:102B5000F52E439BCDC100E487E891E00E94C304B9
:102B6000FF2031F021E083E5F21283E40E9491031B
:102B7000002309F4B5CE86E40E949103B1CE89E02A
:102B8000C7CFFF24F394E5CF903809F004CF8091AC
:102B9000610680628093610617FF0CC080915F061A
:102BA000813029F48091610685608093610680E818
:102BB00080935F0688EE0E945F0211FF28C0812F7C
:102BC000887611F580915F06803441F4809161062A
:102BD00085FD04C084FFEAC010925F0680915F0605
:102BE000882309F4E9C084FF0FC09091610690FF2B
:102BF0000BC0803109F0E0C080916906882309F498
:102C0000DBC088608093690682E00E945F0212FF49
:102C100024C09091610680915F06807D09F4E5C033
:102C2000809162068111E1C097FDE1C00E94F60229
:102C300080915402809353020E941A078091630688
:102C400081FF05C090916106916090936106897F34
:102C50008093630684E00E945F029091430699236B
:102C600009F44CC08FB7F894109243068FBF40917F
:102C70006606842F90FD84E691FD865F92FD8A5062
:102C800093FD8F5F94FD8150893C08F088EC8A3079
:102C900008F48AE030916706232F95FD24E696FD1F
:102CA00022E397FD29E1481302C0231739F18093ED
:102CB00066062093670610926A0670905402609030
:102CC0008505172D89E9282E96E7392E26E9422E0B
:102CD0003EE7532E43E3842E1611A4C0C101D20156
:102CE0008093370190933801A0933901B0933A0152
:102CF0000E94F602709253020E941A071091440635
:102D0000112309F44BC08FB7F894109244068FBF7B
:102D100090916806892F10FD84E611FD865F12FDF3
:102D20008A5013FD8F5F14FD8150893C08F088ECB8
:102D30008A3008F48AE09817A1F090915F0680939A
:102D400068069111C9C04091DC065091DD06609182
:102D5000DE067091DF068091DA060E94F10A109279
:102D60006A0680915F0615FF09C0803139F49091A1
:102D700069069111B7C092E090936906107C71F0DA
:102D8000882311F0887351F01091D90616FFAEC058
:102D90001F7B812F0E94C9091093D90680915F067D
:102DA0008C7F09F4B6CC0E941C0BB3CC82FF16CFEB
:102DB00088608093610612CF109263060E9402071A
:102DC000892B71F08091610686FD0AC01092610620
:102DD00088E080935F060E941C0B0E94370314CF8B
:102DE0001092610610925F060FCF97FF0AC01092F3
:102DF00063060E94D5090E94E1120E9411090E94F7
:102E00006D068091610685FF08C08F778160809391
:102E1000610680E480935F061DCF109261061092D8
:102E20005F0618CFA12EB12C189DC00111248B5A1A
:102E30009D4F0E948F06962EC72ED82E092F9101E6
:102E4000A2010E94013A8A9C70018B9CF00C112413
:102E50001816ACF5C7018B5A9D4F7C019101A20158
:102E6000B101C2010E94413AF701668B778B808FD6
:102E7000918F8A9CC0018B9C900D11249C012B5A30
:102E80003D4F7901F90122A033A044A055A0A20131
:102E9000910166897789808D918D0E94013A18167B
:102EA0002CF4F701268A378A408E518E1F5F10312D
:102EB00009F410E0292C3C2C4D2C502E0DCF9701FD
:102EC0002B5A3D4F7901292D3C2D4D2D502F692D29
:102ED0007C2D8D2D902FC6CF8091630688608093C6
:102EE00063063DCF90FF4ACF946046CF106451CF28
:102EF000F11032CEF5CC1F93CF93DF93142F20E047
:102F000030E040EA51E40E94413A0E94C8370E94F2
:102F10006238EB012097C9F080916006811115C0DD
:102F200011110DC00E94A9172FEF80E792E02150E8
:102F300080409040E1F700C000002197EBCF0E9455
:102F400038138091610681FFEFCFDF91CF911F9100
:102F50000895CF92DF92EF92FF921F93CF93DF936A
:102F60000E94381380916106882309F46EC00E9484
:102F70000207009709F03FC0C091DA068091D90698
:102F8000C82BC090DC06D090DD06E090DE06F09005
:102F9000DF068091C10681FF03C080E20E944702E4
:102FA000DC2FD07311E0C07C80916106882309F486
:102FB0004CC090916006911148C080FF19C090915B
:102FC0005F06292F207C09F48DC082FD23C010925A
:102FD000690640E050E0BA0180E00E94F10A80E01A
:102FE0000E94C909809161068D7F8460809361068B
:102FF0000E943813D9CFFC0121892073439908C05E
:10300000C0E0C22BFC01C6A4D7A4E0A8F1A8C1CFA0
:10301000C0E4F7CF903821F580EF92E00E94C3041E
:1030200089E592E00E94C3040E94320640E050E02D
:10303000BA0180E00E94F10A80E00E94C9090E9462
:10304000AD1280916006882341F0DF91CF911F91EE
:10305000FF90EF90DF90CF9008950E943813F1CF4A
:10306000903419F48F7D809361068091610683FF0F
:10307000BFCF9091DA06992359F081FD09C0809164
:10308000C10681FF22C08091630688608093630639
:103090008091D906882371F08091610681FD0AC074
:1030A0008C2F0E94C90941E060E070E080E89FE356
:1030B0000E947B178091610681FD9ACF8061809389
:1030C000610682E00E94690293CFB701A6018D2FAD
:1030D0000E94F10A41E060E070E080E890E40E9424
:1030E0007B17D6CF809169068823C9F181FF0DC077
:1030F0008091DA06882351F140E050E0BA0180E087
:103100000E94F10A1093690673CF8C7009F470CF96
:103110008091DA06882399F080EF92E00E94C30440
:1031200082E692E00E94C3040E9432068091C106AA
:1031300081FF0FC080916306886080936306809151
:10314000690683FF03C082E00E946902109269064B
:103150004FCFB701A6018D2F0E94F10AF0CF8091C9
:10316000630683FF45CFB701A6018D2F0E94F10AA8
:1031700080916306877F809363063ACF0E9412078F
:103180000E94A91780916006811108C00E94020761
:10319000892BB1F780915F06883091F30895CF9322
:1031A000DF9391E5899FE0011124DD5F40E550E068
:1031B000BE018BE497E00E948709892B79F4109275
:1031C0004B070E94BE1840E550E06BE477E0CE016B
:1031D0000E94370980E0DF91CF91089581E0FBCF15
:1031E0000E94BE1810926B060895CF92DF92EF9264
:1031F000FF92CF9390915F06923079F06A017B0144
:10320000C82F0E94BE18B701A6018C2FCF91FF9046
:10321000EF90DF90CF900C94F10ACF91FF90EF9058
:10322000DF90CF9008950F931F93CF93C82F8B01FA
:103230000E94BE182DE0C29FC00111244CE050E056
:10324000B8019E5FCF911F910F910C9437091F9386
:10325000CF93DF93182FEB018DE0189FB00111245D
:103260007E5F4CE050E0CE010E948709892B71F40B
:103270008CE0FE0111928A95E9F7BE01812F0E9430
:10328000131980E0DF91CF911F91089581E0FACF6B
:10329000EF92FF920F931F93CF93DF93CDB7DEB7DB
:1032A0002C970FB6F894DEBF0FBECDBF182F80FF4E
:1032B0000BC081E6E3EFF1E0A0E7B6E005900D92E8
:1032C0008A95E1F70E94720911FF10C0CE010196A4
:1032D0007C018CE0F70111928A95E9F700E0B701D3
:1032E000802F0E9413190F5F0830C9F712FF14C016
:1032F00060E080E093E00E94170960E081E093E0E5
:103300000E94170960E081E593E00E94170960E0E0
:1033100082E593E00E94170913FF0AC060E08EEA7D
:1033200093E00E94170960E08FEA93E00E9417097A
:103330002C960FB6F894DEBF0FBECDBFDF91CF91B4
:103340001F910F91FF90EF9008952F923F924F920F
:103350005F926F927F928F929F92AF92BF92CF9225
:10336000DF92EF92FF920F931F93CF93DF93CDB72E
:10337000DEB7C454D1090FB6F894DEBF0FBECDBF7F
:103380003B0100918505202E312C23E3029FA001F3
:103390001124BA016B5A7D4F7CAB6BABFB011192D0
:1033A0002A95E9F7F30140855185FB01418BF30133
:1033B000C480D580E680F780EBA9FCA9C6A6D7A675
:1033C000E0AAF1AA50FF02C021E022AB9E01275ED5
:1033D0003F4F5CE0F90111925A95E9F741FF09C1AD
:1033E0004CE0E6E4F6E0D90101900D924A95E1F750
:1033F00089AB9AAB60E776E021967FAF6EAF2197FD
:10340000CE010D969EAF8DAF3CAF2BAFEBA9FCA9C3
:10341000FAAFE9AF9E012B5D3F4F3EAB2DAB8FE086
:10342000482E81E0582E38AF2FAB10E023E3229DC9
:10343000C001239D900D11248B5A9D4FBC01645FE8
:103440007F4F23967FAF6EAF2397FC017096259632
:10345000FFAFEEAF2597E9A9FAA96191719181912A
:103460009191FAABE9AB2196EEADFFAD219781903A
:103470009190A190B1902196FFAFEEAF2197A50159
:1034800094010E94413A0E940E3AEDADFEAD619367
:10349000719381939193FEAFEDAFEBADFCADC19015
:1034A000D190E190F190FCAFEBAF6C197D098E09E2
:1034B0009F099B01AC0197FF07C022273327A90171
:1034C000261B370B480B590BE9ADFAAD219331930D
:1034D00041935193FAAFE9AF2396EEADFFAD239739
:1034E000C080D180E280F380C216D306E406F506E0
:1034F00010F469017A012396EEADFFAD2397C082E7
:10350000D182E282F3820E949338A50194010E9445
:10351000E9374B015C01EFA9F8AD81929192A1923C
:10352000B192F8AFEFAB20E030E0A9010E94DF37A5
:10353000882319F021E0F201218320E030E0A90185
:10354000C501B4010E94DF3787FF11C090E211234B
:1035500021F090E8113009F490E42596EEADFFAD2E
:1035600025978081892B80832FEFF20121831F5FB4
:103570003FEF431A530A133009F06DCF80E0CD2896
:10358000CE28CF2809F4E1C0CE0185960E94E60935
:103590004B015C0123E3229DC001239D900D11246A
:1035A000BC016B5A7D4F7B01FB01868E978EA0A2DA
:1035B000B1A2BE016B5D7F4F84E996E00E94850851
:1035C000F701628F738F848F958FBE016B5D7F4F84
:1035D00088E896E00E948508F70166A377A380A794
:1035E00091A7118910FF14C062A773A784A795A79C
:1035F0001BC043E3429DF001439DF00D1124EB5AA3
:10360000FD4F42A94111F4CE4CE0EFE1F1E0EBCEE9
:10361000F301208131814281538113FDB0C0F70154
:1036200022A733A744A755A780915402081711F089
:1036300011FFABC083E3829DF001839DF00D112447
:10364000EB5AFD4F128A138A148A158A12A213A20A
:1036500014A215A283E3829D8001839D100D112485
:103660000B5A1D4FF801818981FD6EC08BA99CA961
:103670000E948F066B017C01809037019090380189
:10368000A0903901B0903A01AC019B01C501B40191
:103690000E94DF3787FF41C1A5019401C501B40134
:1036A0000E94413AF801668B778B808F918F83E37C
:1036B000829D8001839D100D11240B5A1D4FF8012E
:1036C00082A093A0A4A0B5A0A501940166897789E2
:1036D000808D918D0E94013A18162CF4F801868A8B
:1036E000978AA08EB18EC0923701D0923801E092B5
:1036F0003901F0923A018CE0FE01B596ABE2B1E0FF
:1037000001900D928A95E1F783E3829DF001839DFC
:10371000F00D1124EB5AFD4F82A9811109C08CE0F4
:10372000FE013D96AFE1B1E001900D928A95E1F77F
:1037300080910E01809385058F5F803109F480E0D0
:1037400080930E010E941A0781E0CC5BDF4F0FB619
:10375000F894DEBF0FBECDBFDF91CF911F910F91C7
:10376000FF90EF90DF90CF90BF90AF909F908F90A1
:103770007F906F905F904F903F902F900895C5017C
:10378000B4010E94413AF7012FCF2BE231E03AAB6E
:1037900029AB8E010F5F1F4F6DA97EA9645F7F4F1C
:1037A0007CAF6BAFC12CD12C76010FAB19AFE9A95F
:1037B000FAA981909190A190B190FAABE9ABEDA9F3
:1037C000FEA94190519061907190FEABEDABA301C9
:1037D0009201C501B4010E94413A9B01AC01C701AD
:1037E000B6010E94E9366B017C01A5019401C30179
:1037F000B2010E94E936F80161937193819391932C
:103800008F012BAD3CAD6DA97EA92617370779F640
:103810002FEE3FEF4FE75FE3C701B6010E94013A89
:1038200018164CF483E3829DF001839DF00D112462
:10383000EB5AFD4F0BCF2FEE3FEF4FE75FEBC7018A
:10384000B6010E94DF3787FF11C083E3829DF0013C
:10385000839DF00D1124EB5AFD4F89E996E7A6E907
:10386000BEE782A393A3A4A3B5A3F4CE8FA999AD79
:103870000E94E6096FA979AD84E996E00E94850867
:103880004B015C01A701960160E070E080E89FE3D6
:103890000E94E93620E030E040E05FE30E94413AD8
:1038A0000E94E03A6B017C012091B1063091B20692
:1038B0004091B3065091B406C501B4010E94413A4B
:1038C000A70196010E94413A4B015C01A7019601B4
:1038D00060E070E080E89FE30E94E9369B01AC0164
:1038E000C501B4010E94E9376B017C0120E030E0A2
:1038F000A9010E94DF3787FF03C0C12CD12C7601BC
:1039000083E3829DF001839DF00D1124EB5AFD4F5E
:10391000C2A2D3A2E4A2F5A29DCEA7019601C7013F
:10392000B601BECE2F923F924F925F926F927F92DE
:103930008F929F92AF92BF92CF92DF92EF92FF92BF
:103940000F931F93CF93DF93CDB7DEB76C970FB66E
:10395000F894DEBF0FBECDBF7C018B018091C10604
:1039600085FF2AC0D0905F0620E2422ED41449F190
:10397000FB018085918590FD1FC0C7010E947202E6
:103980008823D1F081E080936206F8E0DF120DC059
:1039900088E00E9469020E94A91780916006811147
:1039A0000BC080915F068111F6CF0E94141382E054
:1039B0000E9459020E94A91780915F06823009F483
:1039C000DEC0F8018085918590FDB0C081FF09C0FF
:1039D0008CE0E6E4F6E0B0E0A0E001900D928A957C
:1039E000E1F783E1A82E81E0B82E670190E7892EE8
:1039F00096E0992E2FE131E03A8F298F40E151E096
:103A00005C8F4B8F17015CE0250E311C1F8AF5017E
:103A100011921192119211925F01F60161917191CF
:103A2000819191916F01F4012191319141915191D5
:103A30004F010E94413A0E940E3AE98DFA8D219180
:103A4000319141915191FA8FE98F2B013C01421A3A
:103A5000530A640A750AB301A20114161506160664
:103A600017060CF472C081E090E0A0E0B0E0452BB6
:103A7000462B472B19F480E090E0DC019C01AD015E
:103A800066277727CB01621B730B840B950BEB8D9D
:103A9000FC8D2191FC8FEB8F222329F1611571059B
:103AA0008105910501F1022E000C330B440B550BDF
:103AB0006217730784079507B1F03501F4E06F1AB8
:103AC00071080E9493389B01AC01F40160857185F7
:103AD000828593850E94413AF301608371838283DA
:103AE0009383F1E0FF8BC214D30409F090CF4F8889
:103AF0004420E1F08CE0E3E1F1E0DE011196019079
:103B00000D928A95E1F78AE0F801DE011D96019099
:103B10000D928A95E1F781E091E09E8B8D8BBE013D
:103B2000635F7F4FCE0101960E94921C0E94A917ED
:103B300080916006811123C09091540280910E0102
:103B4000981308C00E941207F1CF61E070E080E096
:103B500090E09DCFB801C7010E94A51981110FC047
:103B60008091C10681FF0BC0F801808584FF07C0EA
:103B7000448155816681778180E10E94F5186C96B9
:103B80000FB6F894DEBF0FBECDBFDF91CF911F916E
:103B90000F91FF90EF90DF90CF90BF90AF909F90EC
:103BA0008F907F906F905F904F903F902F900895EF
:103BB0002F923F924F925F926F927F928F929F923D
:103BC000AF92BF92CF92DF92EF92FF920F931F932B
:103BD000CF93DF93CDB7DEB7CD54D1090FB6F894AC
:103BE000DEBF0FBECDBFE1E1F7E08AE3DF011D924A
:103BF0008A95E9F78BE0E1EDF6E0A2E1B7E001900C
:103C00000D928A95E1F780914B078432A1F01B8ECB
:103C10001CA2312C212C1FA61EA610E01C8E18A25F
:103C2000EE24E394F12CAAE0AA2EB12CB1E68B2E5F
:103C3000B3E09B2E4EC181E08093120710921307D0
:103C400083E08B8FB1E0BCA3E4CF9FEB9D0D9A3155
:103C500010F00C94762B8F5F8B8FBE01695E7F4FC7
:103C6000CE014B960E949A01882311F40C94792B73
:103C70004F88588C698C7A8CC301B2010E94243B16
:103C80000E946238062F70E090E080E00E94933836
:103C90009B01AC01C301B2010E94E93620E030E093
:103CA00048EC52E40E94413A0E94AE3A0E946238C7
:103CB000CB01E7E4DE1629F1FDE4DF1609F465C166
:103CC000EAEBED0DE53108F02CC00E2E000CFF0BD9
:103CD000E459F14E0C948C3B0E20911E911E3B201A
:103CE000462051205C20911E6020911E6E20911E66
:103CF000782082208C20911E911E911E9C20A9204C
:103D0000B620083209F4DDC030F5043160F4013129
:103D100008F098C0043009F474C0B0F00A3009F417
:103D200068C084E196C00C3109F463C040F40631E8
:103D3000C0F725E1201B2093140726E087C00E3131
:103D400009F457C0063269F748A141110C947C2B45
:103D5000A2E0A8A328C00D3309F4AEC0E0F40533F7
:103D600009F44FC088F40B3211F00133D1F6B8A139
:103D7000B1110C947C2B013309F095C010921707F8
:103D8000E3E0E8A328E04FC00C3358F60653009355
:103D9000180729E05BC00C3508F50A3508F073C038
:103DA000003509F0BECF0093120721E0063209F07A
:103DB0004DC08431910551F08E31910539F0883232
:103DC000910521F08233910509F0ABCFB5010E9436
:103DD000563B66576093120721E025C00C3549F029
:103DE0000F3508F09ECF2EE5201B2093130725E00A
:103DF0002DC0009731F428A121110C947C2B31E0C7
:103E000038A300931107202F2D7F2C3119F020E0CB
:103E10000C35E1F4009719F00A9709F082CF600F92
:103E20006093110720E0C70102C0880F991F2A95EF
:103E3000E2F72EA53FA528233923232B09F443C0FD
:103E400085E107C001510093160722E0892B59F341
:103E500087E1C35BDF4F0FB6F894DEBF0FBECDBF67
:103E6000DF91CF911F910F91FF90EF90DF90CF9056
:103E7000BF90AF909F908F907F906F905F904F908A
:103E80003F902F900895892B29F40A550093150728
:103E900023E0C9CF6A30710509F043CF0A3509F430
:103EA00040CF24E0C0CF0A9709F03BCFF1E0F09378
:103EB000170723E028A366CF892B09F032CF2AE029
:103EC000B2CF27E0C3CFAEA5BFA5A82BB92BBFA704
:103ED000AEA78B8DE82FF0E0E55BF84FD080D110D6
:103EE000B4CEBC8DBB2329F0E8A1E11102C0F2E001
:103EF000F8A325FE0FC080912E0790912F07A09167
:103F00003007B091310781389649A849B10514F0BE
:103F10000C94882B3CA1332309F435C120FE45C104
:103F2000809114078130B1F423E333E34BEC51E487
:103F300060911D0770911E0780911F0790912007C7
:103F40000E94413A60931D0770931E0780931F07DC
:103F50009093200730FC10C08091DC069091DD0624
:103F6000A091DE06B091DF0680933A0790933B075D
:103F7000A0933C07B0933D0780911107843009F06E
:103F80002FC126FC2BC18CE164CF892B09F060CFB7
:103F9000063050F4033098F00430D9F080E1053059
:103FA000C9F410921B0718C0083008F4BACE0A30C2
:103FB00048F10E3109F0B5CE0093190704C0002373
:103FC00021F00130C9F78BE008C0B3E0B0931907C6
:103FD000FACF80E280931B078CE0F70102C0EE0F5E
:103FE000FF1F8A95E2F7CF012EA53FA52E23392387
:103FF000232B09F025CF2EA53FA52E2B392B3FA72C
:104000002EA767CF093039F080911A07806480931A
:104010001A078DE0E2CF10921A07FBCF40921D07DE
:1040200050921E0760921F077092200780E0670180
:10403000082E02C0CC0CDD1C0A94E2F79601222166
:104040003321232B11F00C94822BD40102C0B5959F
:10405000A7958A95E2F7A0FF0BC020E030E0A90108
:10406000C301B2010E94DF3787FF02C00C94852B89
:104070002C283D282ECF4092210750922207609293
:10408000230770922407116081E0D1CF4092250769
:10409000509226076092270770922807126082E0EC
:1040A000C6CF4092290750922A0760922B07709240
:1040B0002C07146083E0BBCF00932D0784E0B7CFBB
:1040C000C301B2010E945B3860932E0770932F07E3
:1040D000809330079093310785E0A9CF4092320753
:1040E00050923307609234077092350786E09FCF75
:1040F000409236075092370760923807709239071E
:1041000087E095CF40923A0750923B0760923C0778
:1041100070923D0788E08BCF20E030E04FE753E41A
:10412000C301B2010E94013A181614F40C947F2BBB
:1041300000933E0789E07BCF40923F0750924007B3
:1041400060924107709242073C8D31603C8F8AE05B
:104150006ECF409243075092440760924507709299
:1041600046074C8D42604C8F8BE061CF40924707F1
:10417000509248076092490770924A078C8D84607C
:104180008C8F8CE054CF80911307813081F448A14B
:10419000423009F0DFCE80911207803509F4DACE83
:1041A000882309F4D7CE20FCD5CE86E152CE80916B
:1041B000D2068111CFCE20FCB3CE8091E006909143
:1041C000E106A091E206B091E30680931D0790936B
:1041D0001E07A0931F07B0932007BCCEE89426F8D3
:1041E00080911607882359F0813009F4BBC02396CB
:1041F0001FAE2397A2E0ACAFB1E0BAAF07C082E038
:1042000023968FAF239791E09CAF1AAE809114074D
:10421000813071F5E1E1CE2EE7E0DE2EF12CE12CCC
:104220002C8DA22EB12CC5010E2C02C09595879520
:104230000A94E2F780FF12C023E333E34BEC51E42E
:10424000D6019E966D917D918D919C91D1970E9402
:10425000413AF60166A777A780AB91ABFFEFEF1A63
:10426000FF0A24E0C20ED11C33E0E316F104D9F6B4
:1042700048A1433049F480911707813029F48C8D8F
:10428000843011F00C948B2B8CE0E5EFF6E0DE012E
:10429000119601900D928A95E1F7AEA5BFA5B1FDEB
:1042A00069C0009111070A3009F478C00C3509F48F
:1042B00019C198A1933009F43FC0AC8DAA23E1F154
:1042C000B0911507B8A780910D0790910E07A091A6
:1042D0000F07B09110078AA79BA7ACA7BDA791EDC8
:1042E000A92E96E0B92E21E1C22E27E0D22EF12C84
:1042F000E12C9C8D892E912CC4010E2C02C0959529
:1043000087950A94E2F780FD5DC1F501808D918D5E
:10431000A28DB38DF60186A797A7A0ABB1ABFFEF37
:10432000EF1AFF0A24E0A20EB11C34E0C30ED11C28
:1043300043E0E416F10401F70E3109F494C10533AA
:1043400009F4B8C161E277E086E00C3109F02DC1D3
:104350000E942719882301F18C8D811188C11AA62A
:1043600018A2A9C0E1E02396EFAF23971CAEF2E0BC
:10437000FAAF4CCF80911807873010F08DE169CDEE
:104380009091D706891709F48CCFBE016F5F7F4FDC
:104390000E942719811185CF87E05BCDBC8DB111BB
:1043A00002C08AE156CDC10180759927892B09F495
:1043B000EACD609132077091330780913407909174
:1043C00035070E94243B0E9462386730B8F680911E
:1043D0002D07843129F0823009F0A3CC27FCA1CC31
:1043E000662309F474C061506AA761E277E08AA588
:1043F0000E942719882381F200912D0740900D0714
:1044000050900E0760900F077090100771E1C72E53
:1044100077E0D72EF12CE12C3C8D232F30E039A70B
:1044200028A788A599A50E2C02C0959587950A9472
:10443000E2F780FF33C0D6019E968D909D90AD909F
:10444000BC90D197043109F046C0F701EE0FFF1F71
:10445000EE0FFF1FEF52F94F20A931A942A953A92E
:10446000608D718D828D938D0E94E936A501940136
:104470000E94E936F601608B718B828B938BF2E0A0
:10448000EF120CC0A30192010E94E9366093290744
:1044900070932A0780932B0790932C07BFEFEB1A9A
:1044A000FB0AE4E0CE0ED11CF3E0EF16F10409F0B4
:1044B000B8CF2FEA22228091120788A7803509F011
:1044C00000C19C8D992309F406C18FE1C2CCE09113
:1044D0001807EAA78ACF50968D929D92AD92BC9212
:1044E0005397DCCF3C8D332309F45BCF40900D070D
:1044F00050900E0760900F077090100741ED842ECA
:1045000046E0942ECE0101967C0151E1A52E57E0A4
:10451000B52ED12CC12CA32FB0E0B9A7A8A788A590
:1045200099A50C2C02C0959587950A94E2F780FF17
:104530003EC0F7012081318142815381D4015896D8
:104540006D917D918D919C915B970E94E936F5016B
:1045500026A537A540A951A90E94E936D5019E9606
:104560006D937D938D939C93D197B2E0CB120CC049
:10457000A30192010E94E9366093470770934807B0
:104580008093490790934A07FFEFCF1ADF0A24E090
:10459000820E911C34E0E30EF11C44E0A40EB11C29
:1045A00083E0C816D10409F0BACF1AA684CFF4016B
:1045B00080A991A9A2A9B3A9F50186A797A7A0AB45
:1045C000B1ABE2CF053309F4AACED6019E964D9049
:1045D0005D906D907C90D197B8A5B11133C0F70173
:1045E000EE0FFF1FEE0FFF1F21E030E02C0F3D1FED
:1045F000E20FF31FD501D0962D913D914D915C9125
:10460000D39760817181828193810E94EA36A301F0
:1046100092010E94EA36F60166A777A780AB91ABBC
:10462000F2E0EF127CCE2AA53BA54CA55DA50E9429
:10463000EA36609347077093480780934907909341
:104640004A076DCEA3019201D50158966D917D91D7
:104650008D919C915B970E94EA36F60166A777A739
:1046600080AB91AB5CCE61E277E087E071CEA1EDEB
:10467000B6E0E1E1F7E090E080E04C8D242F30E0FF
:10468000A901082E02C0559547950A94E2F740FD0E
:104690000AC058964D915D916D917C915B97408BCE
:1046A000518B628B738B01961496349683309105EF
:1046B00039F77BCF80911207823008F476CF8EE1F4
:1046C000C8CBA8A1A23039F4B8A5B11175C0EC8D42
:1046D000EE2309F48FC02CA12170ECA1C101E0FFF1
:1046E000DAC28E7DF8A1F111937E892B11F00C9422
:1046F000942B8E01035F1F4F8AE0D8011D928A958B
:10470000E9F7222309F4CAC28EA59FA5867B892BCF
:1047100011F00C94972B80911107853319F08111BA
:104720000C94972B8091DC069091DD06A091DE061B
:10473000B091DF06898B9A8BAB8BBC8B8091DA06AC
:104740009091D906892B40911D0750911E076091C9
:104750001F07709120074D875E876F87788B846075
:1047600090E09E8B8D8B8091C10685FF06C08FE304
:1047700097E00E9472028111DDC7B8018FE397E0D4
:104780000E94921C80915F0681110BC00E9402075B
:10479000892B39F080E280935F060E941C0B0E94F7
:1047A00037038CE0EFE3F7E0A9EEB6E001900D925D
:1047B0008A95E1F780E04DCB20E030E0A9016091DF
:1047C0001D0770911E0780911F07909120070E947E
:1047D000DF37882309F4E9CCF8A5FC38B9F060F498
:1047E000F23059F1F33061F1F13009F074CF3C8DC2
:1047F000311171CF18A26FCF28A52E3839F018F0DB
:104800002F3809F068CF9CA190619CA388A58E5891
:10481000823018F4ACA1A860ACA3BC8DBB2309F412
:10482000C0CD4CE050E06FE377E089EE96E00E9467
:10483000AC3B892B09F04FCF6DC04CA144604CA319
:104840008C8D882309F4ADCDBAADAB2FB0E0BBABF6
:10485000AAABFCADEF2FF0E0FFABEEAB81E090E058
:104860007C010AAC02C0EE0CFF1C0A94E2F70CAC0F
:1048700002C0880F991F0A94E2F7E82AF92A2C8DC2
:10488000822F90E08E219F21892B09F447C7FD01DB
:10489000EE0FFF1FEE0FFF1FEF5EF84FAA0FBB1FBB
:1048A000AA0FBB1FA751B94F2D913D914D915C911E
:1048B00066A577A580A991A90E94E9362B013C0144
:1048C000EEA9FFA9EE0FFF1FEE0FFF1FEF5EF84FDF
:1048D000AEA9BFA9AA0FBB1FAA0FBB1FA751B94FF3
:1048E0002D913D914D915C9166A577A580A991A9E7
:1048F0000E94E9364B015C0127FEFFC0E89427F8CF
:104900004CE050E06FE377E089EE96E00E94AC3B2C
:10491000892B11F481E29DCA6091360770913707A7
:10492000809138079091390720911407213071F454
:1049300023E333E34BEC51E40E94413A60933607A2
:104940007093370780933807909339078091360723
:1049500090913707A0913807B091390722968CAF14
:104960009DAFAEAFBFAF2297A3019201C301B201C9
:104970000E94413A2A966CAF7DAF8EAF9FAF2A97C7
:10498000A5019401C501B4010E94413A2E966CAF75
:104990007DAF8EAF9FAF2E9720E030E040E850E42F
:1049A00022966CAD7DAD8EAD9FAD22970E94413AAF
:1049B00022962CAD3DAD4EAD5FAD22970E94413A9F
:1049C0002A962CAD3DAD4EAD5FAD2A970E94E936DB
:1049D0002E962CAD3DAD4EAD5FAD2E970E94E936C3
:1049E0006B017C0120E030E0A9010E94DF3787FDE8
:1049F00098C6C701B6010E94E03A6B017C012E9671
:104A00002CAD3DAD4EAD5FAD2E972A966CAD7DAD14
:104A10008EAD9FAD2A970E94EA360E94E03A9B0134
:104A2000AC01C701B60190580E94E9376B017C01C7
:104A300098A5933021F4F7FAF094F7F8F09420E079
:104A400030E0A90122966CAD7DAD8EAD9FAD229771
:104A50000E94DF3787FF13C0F7FAF094F7F8F0945D
:104A600022968CAD9DADAEADBFAD2297B058809370
:104A7000360790933707A0933807B09339070AA9F0
:104A80001BA9000F111F000F111F0F5D184FA70169
:104A90009601C501B4010E94413A9B01AC01C301DA
:104AA000B2010E94E93620E030E040E05FE30E947E
:104AB000413AD8016D937D938D939C9313970EA9E2
:104AC0001FA9000F111F000F111F0F5D184FA70125
:104AD0009601C301B2010E94413AA50194010E94CE
:104AE000EA3620E030E040E05FE30E94413AF8011E
:104AF0006083718382839383EECDC12ED12CE1221A
:104B0000FD2083E2EF2809F4A4C9F1EF2F22809160
:104B10001407813041F501E117E0F12CE12CC601C9
:104B20000E2C02C0959587950A94E2F780FF12C07B
:104B300023E333E34BEC51E4D80150966D917D9122
:104B40008D919C9153970E94413AF801608B718B33
:104B5000828B938BFFEFEF1AFF0A0C5F1F4F23E04E
:104B6000E216F104E1F6EAA9FBA9EE0FFF1FEE0F32
:104B7000FF1FEF5DF84FC080D180E280F380A70176
:104B80009601C301B2010E94E9362B013C01EEA956
:104B9000FFA9EE0FFF1FEE0FFF1FEF5DF84F8081A3
:104BA0009181A281B3818AAB9BABACABBDAB9C01C5
:104BB000AD01C501B4010E94E9364B015C01A301BE
:104BC0009201C301B2010E94413A2B013C01A501AF
:104BD0009401C501B4010E94413A9B01AC01C3019B
:104BE000B2010E94EA360E94E03A4B015C01A70143
:104BF0009601C701B6010E94413A6B017C012AA9C6
:104C00003BA94CA95DA9CA01B9010E94413A9B0187
:104C1000AC01C701B6010E94EA360E94E03A6B017E
:104C20007C01C0923607D0923707E0923807F092A5
:104C30003907AC019B01C501B4010E94E9364B0163
:104C40005C01E894B7F82AE037ED43EA5BE3C5017D
:104C5000B4010E94013A18160CF03DCD20E030E07E
:104C600040E05FE3C501B4010E94013A18160CF45C
:104C700051CE2FE632E143E85AE3C701B6010E9464
:104C8000413A9B01AC01C501B4010E94013A1816DA
:104C90000CF021CD3FCE8E7D9C7F24CD8091C1062E
:104CA000F090DA0681FF12C088A58150833018F099
:104CB000BCA1B064BCA3EC8DEE2309F449C1F8A1FA
:104CC000F23009F045C12CA120682CA380912E0759
:104CD00090912F07A0913007B09131078093E5069E
:104CE0009093E606A093E706B093E8068091130739
:104CF0008093D206882321F088E090E09E8B8D8BF4
:104D000080911D0790911E07A0911F07B091200769
:104D10008093E0069093E106A093E206B093E30649
:104D20008D879E87AF87B88B80903A0790903B071E
:104D3000A0903C07B0903D07A50194016091DC066E
:104D40007091DD068091DE069091DF060E94DF37CC
:104D50009CA19074E92E811103C0ACA1A5FF1FC0D6
:104D6000FF2069F0BCA1B7FD0AC040E050E0BA01E5
:104D7000E11002C0B501A4018F2D0E94F5188091A9
:104D80003A0790913B07A0913C07B0913D07809373
:104D9000DC069093DD06A093DE06B093DF06E110FB
:104DA0000CC08091DC069091DD06A091DE06B091EA
:104DB000DF06898B9A8BAB8BBC8B80913E078093EF
:104DC000E40680911B079091DA06981751F0498903
:104DD0005A896B897C890E94F51880911B07809302
:104DE000DA062091DA068D899E89822B9E8B8D8B27
:104DF000F0901A078091D9068F1569F080915F06AF
:104E0000823029F00E94BE188F2D0E94C90980911E
:104E10001A078093D9062091D9068D899E89822B05
:104E20009E8B8D8B80911107843099F480915F0661
:104E3000823079F0C0903207D0903307E090340789
:104E4000F09035070E94BE1840E0C701B6010E94ED
:104E50007B17809116078093D50680911407809365
:104E6000D306E8A1E33071F5809117078093D60649
:104E7000811108C010924707109248071092490705
:104E800010924A07C0904707D0904807E090490722
:104E9000F0904A07A701960160910D0770910E07E7
:104EA00080910F07909110070E94DF37882351F0FF
:104EB000C0920D07D0920E07E0920F07F0921007F4
:104EC0000E94F018809118079091D706981769F002
:104ED0008093D7068CE0FE013196A5EFB6E00190F5
:104EE0000D928A95E1F70E94F01880911507809342
:104EF000D40680911107863209F480C008F03FC0C3
:104F00008C3109F45FC08E3109F45CC08A3009F439
:104F100043C0809112078093D106803509F451C3B4
:104F2000B8A1B23009F04DC3813009F07BC0BE0199
:104F3000635F7F4F8FE397E00E94921C8CE0EFE36A
:104F4000F7E0A9EEB6E001900D928A95E1F739C33A
:104F500030E1F312BBCE9CA190748091D1068150B8
:104F6000833038F4992309F4B1CE4CA140624CA3AC
:104F7000ADCE9111ABCE8CA180628CA3A7CE8C3527
:104F800009F442C0863609F445C0883209F0C1CF21
:104F900069EE76E087E035C061E277E08AA50E949D
:104FA00013198091D706FAA5F813B3CF8CE0E1E28C
:104FB000F7E0A5EFB6E001900D928A95E1F70E9427
:104FC000F018A7CF8D899E8981609E8B8D8B28A13B
:104FD000222329F0B8018FE397E00E94921CB801C8
:104FE00081E297E00E94921C8CE0E1E2F7E0A9EEFA
:104FF000B6E001900D928A95E1F78BCF69EE76E0ED
:1050000086E00E94131985CF8CE0EFE3F7E0A1E082
:10501000B7E0D1CFE1E0F7E08CE0DF011D928A95A7
:10502000E9F7CDCF811107C08D899E8981609E8B64
:105030008D8BB8017FCF8250823008F099C2809169
:10504000360790913707A0913807B091390788A3A8
:1050500099A3AAA3BBA3AAAD94E0A99F70011124B0
:10506000F701E751F94FF9A7E8A797012F5D384FEE
:105070003BA72AA7D9014D905D906D907C9020812F
:10508000318142815381C301B2010E94EA366EA789
:105090007FA788AB99ABECADB4E0EB9F8001112406
:1050A00098012751394F3BAF2AAFC8018F5D984F08
:1050B0009DAF8CAFDC018D909D90AD90BC90F901BF
:1050C0002081318142815381C501B4010E94EA36B9
:1050D0006AAB7BAB8CAB9DAB77FA709477F870942E
:1050E000D501C401B0588C8F9D8FAE8FBF8FF70153
:1050F000E15CF84F2EA53FA548A959A960817181AF
:10510000828193810E94E9366B017C01F801E15CA8
:10511000F84F2AA93BA94CA95DA9608171818281C0
:1051200093810E94E9364B015C01A7019601C301FE
:10513000B2010E94413A6EAB7FAB88AF99AFA50137
:1051400094016C8D7D8D8E8D9F8D0E94413A9B01C7
:10515000AC016EA97FA988AD99AD0E94EA366EAB0D
:105160007FAB88AF99AFA5019401C301B2010E9442
:10517000413A4B015C01A70196016C8D7D8D8E8DAE
:105180009F8D0E94413A9B01AC01C501B4010E9470
:10519000E9362EA93FA948AD59AD0E9469376B0188
:1051A0007C019CA192FF6AC12DEB37E346E055EBF1
:1051B000C701B6010E94013A87FD0AC02BED3FE00E
:1051C00049EC50E4C701B6010E94E9366B017C014D
:1051D0008090B5069090B606A090B706B090B8063D
:1051E00028A139A14AA15BA1CA01B9010E94EA36EE
:1051F000A50194010E94E936A50194010E94413A5B
:105200000E94E03A4B015C0120E030E040E05FE3C7
:10521000C701B6010E94413A28A139A14AA15BA168
:105220000E94413A9F77A50194010E94E9370E94AC
:10523000CE380E9462387FAB6EABDB01AB2B09F43A
:1052400076CE0D891E8990E080E00E9491384B0156
:105250005C0103FF0FC0AC019B016D857E858F85CE
:1052600098890E94413A6D877E878F87988B077F48
:105270001E8B0D8BA5019401C701B6010E94E93771
:105280006CA37DA38EA39FA32396EFAD2397B4E0D9
:10529000EB9FC00111248C010751194F815C984F7D
:1052A000D8012D913D914D915C91FC0160817181FE
:1052B000828193810E94E936A50194010E94E93719
:1052C0002A966CAF7DAF8EAF9FAF2A972CA13DA1E0
:1052D0004EA15FA1CA01B9010E94413A9B01AC01F4
:1052E00060E070E080E090E40E94E9366B017C01B0
:1052F0002BEA3AEA4AE25EE36CA17DA18EA19FA16E
:105300000E94413A4B015C0120E030E040E850E46B
:10531000C701B6010E94EA369B01AC01C501B40188
:105320000E94413A22966CAF7DAF8EAF9FAF22971D
:1053300020E030E040E05FE3C701B6010E94413A5F
:1053400026966CAF7DAF8EAF9FAF269718A2222412
:105350002394312CEEA9FFA9E215F30509F4E7CD5A
:10536000F8A1FC3008F09EC0A301920122966CAD1A
:105370007DAD8EAD9FAD22970E94413A6B017C01BD
:105380002C8D3D8D4E8D5F8D26966CAD7DAD8EAD99
:105390009FAD26970E94413A9B01AC01C701B6011F
:1053A0000E94EA367B016C01A301920126966CAD46
:1053B0007DAD8EAD9FAD26970E94413A4B015C01B9
:1053C0002C8D3D8D4E8D5F8D22966CAD7DAD8EAD5D
:1053D0009FAD22970E94413A9B01AC01C501B401E7
:1053E0000E94E9362B013C0128A12F5F28A3470129
:1053F00056018C8E9D8EAE8EBF8EA30192016EA53E
:105400007FA588A999A90E94EA36E8A5F9A5608335
:105410007183828393832C8D3D8D4E8D5F8D6AA920
:105420007BA98CA99DA90E94EA36AAADBBAD6D935C
:105430007D938D939C9313972A962CAD3DAD4EADE5
:105440005FAD2A97F80160817181828193810E940A
:10545000EA36D8016D937D938D939C931397BE018B
:10546000635F7F4F89EE96E00E94921C80916006F8
:10547000811164CDBFEF2B1A3B0A6CCF2DEB37E3C4
:1054800046E055E3C701B6010E94DF3718160CF459
:105490009FCE2BED3FE049EC50E4C701B6010E94DE
:1054A000EA3694CEB10190E080E00E9491382CA1C0
:1054B0003DA14EA15FA10E94413A6B017C010E9477
:1054C000E4376C8F7D8F8E8F9F8FC701B6010E944E
:1054D000D23A4B015C01AAA5BBA5CD90DD90ED9021
:1054E000FC90F7FAF094F7F8F094ACADBDAD8D9167
:1054F0009D910D90BC91A02D88A399A3AAA3BBA3B5
:10550000A70196016C8D7D8D8E8D9F8D0E94413AF5
:105510002B013C0128A139A14AA15BA1C501B4011D
:105520000E94413A9B01AC01C301B2010E94EA36DC
:105530002B013C01A7019601C501B4010E94413A2B
:105540006B017C0128A139A14AA15BA16C8D7D8DE5
:105550008E8D9F8D0E94413A9B01AC01C701B6011F
:105560000E94E9366C8F7D8F8E8F9F8F18A245CF5A
:105570008D899E8984609E8B8D8B80915F068230A1
:1055800009F4DCCC0E94BE1880916006811119C01C
:10559000FCA1F071FF2E109264062CA123FB88273A
:1055A00080F90E94AD0386B18072909145068917FB
:1055B00019F184E00E9459020E94A91780E00E941C
:1055C000AD03809119078093D806882311F40C94B9
:1055D000291F0E94BE188091D80690915F068330E3
:1055E00009F04DC0923029F088E00E9469020E94C3
:1055F000A9171092D806DEC8B8018FE397E00E9481
:10560000921C81E080935E0682E00E9469020E9403
:10561000A917809160068111D4CF80915F06811116
:10562000F6CF80915E06813031F5FF2001F18CE0EC
:10563000E6E4F6E0A2E5B6E001900D928A95E1F786
:1056400010925E0680E00E94AD030E94A9170E949E
:10565000E1120E94D5090E946D060E9437068091D2
:105660006406882309F46ACC0E941109AACF85E058
:105670000E945902E5CF81E080936406E1CF81E08A
:105680008093D1061092D5061092D4061092D206BD
:105690001092D7061092DA061092D90684E680930B
:1056A000660680936706809368069230A1F065EFE6
:1056B00076E080E00E942719882311F40C94CC2115
:1056C0000E94F01840E050E0BA0180E00E94F10A28
:1056D00080E00E94C90980EF92E00E94C30487E83D
:1056E00092E00E94C3040E94320683CF81E00C94B2
:1056F000291F82E00C94291F88E10C94291F86E25F
:105700000C94291F89E10C94291F84E00C94291F13
:105710008BE10C94291F85E20C94291F80E20C94E4
:10572000291F82E20C94291F84E20C94291F80E136
:105730000C94291F8FE00C94291FCF93DF93C0E0B6
:105740008C2F0E94CF18811116C010924B078EE348
:105750000E9491038BE497E00E9461068AE30E9415
:10576000910387E00E94D504C13019F4DF91CF91F5
:105770000895C1E0E5CF80914B078823A9F30E94EB
:10578000D81DD82F8EE30E9491038BE497E00E94EE
:1057900061068AE30E9491038D2F0E94E104E4CF09
:1057A0002F923F924F925F926F927F928F929F9231
:1057B000AF92BF92CF92DF92EF92FF920F931F931F
:1057C000CF93DF93CDB7DEB7A3970FB6F894DEBFC4
:1057D0000FBECDBF90916006911117C1782E9E012A
:1057E000235F3F4F3B8F2A8F88E0D9011D928A9516
:1057F000E9F786E090E09E8B8D8BE0E7F6E0FD8F89
:10580000EC8F7F01265F3F4F690110E000E0812CA3
:10581000912C5401872D90E09F8F8E8F802F94E0E4
:10582000002321F090E1013009F498E0D6019D9326
:105830006D01EE8DFF8D02C0F595E7958A95E2F733
:10584000E0FF1BC020E030E040EC5FEBD701D096DA
:105850006D917D918D919C91D3970E94413A362E06
:10586000472E582E692EA50194010E94DF3787FD2F
:1058700004C0832C942CA52CB62C0F5F1F4FB4E0D2
:10588000EB0EF11C0330110549F62090C70630904D
:10589000C8064090C9065090CA0684E0682E01E010
:1058A00066E476E0CE0101960E94AD028091C206C8
:1058B000E82FF0E0FBA3EAA3FE01319626E436E0F0
:1058C00039A328A36901F12C10E090E080E0B50134
:1058D000A40170582E8D3F8D082E02C03595279556
:1058E0000A94E2F720FF26C0F394D6011D921D9280
:1058F0001D921C9213972AA13BA1082E02C0359538
:1059000027950A94E2F720FF07C0002339F040836F
:1059100051836283738306C00023C9F3808291821E
:10592000A282B382A7E1B0E0AC0FBD1FA80FB91FE0
:105930002C91122B01963496B4E0CB0ED11C8330FF
:10594000910541F66F2D70E090E080E00E94913863
:105950000E94E03A10936506A20191010E94413A2B
:105960006D877E878F87988BBE01635F7F4FCE01E7
:1059700001960E94A519E4E0E09363060E941C0BC7
:105980000E9437030023E9F00E94DB08FE017796AE
:1059900030E020E090E06191462F412359F0AC01C6
:1059A000022E02C0559547950A94E2F740FF02C0C7
:1059B000609516232F5F3F4F2330310561F7109319
:1059C00065060E941C0B80914106847309F4B3C0E4
:1059D0001091410614FF03C086E00E94590215FF92
:1059E00003C087E00E9459020111C1C00E94DB0878
:1059F000872119F088E00E9459028091420688238D
:105A0000E9F00E9414130E94A917A3960FB6F89408
:105A1000DEBF0FBECDBFDF91CF911F910F91FF90E1
:105A2000EF90DF90CF90BF90AF909F908F907F903E
:105A30006F905F904F903F902F90089584E00E9468
:105A40005F020E94E1128091CB069091CC060197F3
:105A500008F076C0E1E00E27C090CD06D090CE06CB
:105A6000E090CF06F090D006002309F470C020E04B
:105A700030E040EA50E4C701B6010E94413A4B01D0
:105A80005C012090C3063090C4064090C50650903B
:105A9000C6066A94611004CF2090C206312C2601FC
:105AA000370177FA709477F8709410E000E08E8DEB
:105AB0009F8D002E02C0959587950A94E2F780FF8E
:105AC00026C0AC8DBD8D8D909D90AD90BC901397F0
:105AD000C101002E02C0959587950A94E2F780FFD8
